:100000000C9434000C9451000C9451000C94510049
:100010000C9451000C9451000C9451000C9451001C
:100020000C9451000C9451000C9451000C9451000C
:100030000C9451000C9451000C9451000C945100FC
:100040000C9451000C9451000C9451000C945100EC
:100050000C9451000C9451000C9451000C945100DC
:100060000C9451000C94510011241FBECFEFD8E026
:10007000DEBFCDBF11E0A0E0B1E0E2EFF8E002C0EA
:1000800005900D92AA31B107D9F721E0AAE1B1E0BC
:1000900001C01D92AE31B207E1F70E94DF020C945D
:1000A00077040C940000DC0140E050E02D91FC014D
:1000B000E40FF51F211102C0108208952032B1F320
:1000C0004F5F5F4F2083F2CF0F931F93CF93DF9348
:1000D0008C01EB0161E070E08AE090E00E94060391
:1000E000FC018881D801A80FB11D9C919D3211F0AF
:1000F0009B32B1F490838F5F888391E08881D8012F
:10010000A80FB11D2C9130ED320F3A3058F02E323D
:1001100049F0CF01DF91CF911F910F910C944A04C8
:1001200090E0ECCFDF01A90FB11D2C938F5F888386
:100130009F5FE4CFCF92DF92FF920F931F93CF93F5
:10014000DF930F92CDB7DEB78B0119820E94530067
:100150006C018981F601E80FF11DF080F11002C0F9
:1001600080E024C09FEB9F0D9A31F8F48F5F898364
:10017000F601E80FF11D80818D3229F08B3219F0E4
:1001800080538A3090F4BE016F5F7F4FC6010E949A
:1001900064009C0188E5F81641F18F1584F0E7E4CE
:1001A000FE16A1F0F3E5FF1641F181E00F90DF911B
:1001B000CF911F910F91FF90DF90CF90089589E527
:1001C000F81217C0F80134832383C3CF22303105DE
:1001D0002CF437FDEACFF8011082BBCF2B35310567
:1001E00021F781E0F8018083B4CFF80132832183C5
:1001F000B0CFF80136832583ACCFF8013087278351
:10020000A8CFFC0144E081E090E02BB16181DC01EA
:1002100002C0AA0FBB1F6A95E2F72A2B2BB9AFEBDE
:10022000BDE51197F1F700C000005BB12181BC0171
:1002300002C0660F771F2A95E2F79B0120952523C0
:100240002BB92BB16281DC0102C0AA0FBB1F6A95DA
:10025000E2F72A2B2BB9AFEBBDE51197F1F700C000
:1002600000005BB12281BC0102C0660F771F2A9596
:10027000E2F79B01209525232BB92BB16381DC018B
:1002800002C0AA0FBB1F6A95E2F72A2B2BB9AFEB6E
:10029000BDE51197F1F700C000005BB12381BC01FF
:1002A00002C0660F771F2A95E2F79B012095252350
:1002B0002BB92BB16481DC0102C0AA0FBB1F6A9568
:1002C000E2F72A2B2BB9AFEBBDE51197F1F700C090
:1002D00000005BB12481BC0102C0660F771F2A9524
:1002E000E2F79B01209525232BB9415041118DCF79
:1002F0000895FC0144E081E090E02BB16481DC01D1
:1003000002C0AA0FBB1F6A95E2F72A2B2BB9AFEBED
:10031000BDE51197F1F700C000005BB12481BC017D
:1003200002C0660F771F2A95E2F79B0120952523CF
:100330002BB92BB16381DC0102C0AA0FBB1F6A95E8
:10034000E2F72A2B2BB9AFEBBDE51197F1F700C00F
:1003500000005BB12381BC0102C0660F771F2A95A4
:10036000E2F79B01209525232BB92BB16281DC019B
:1003700002C0AA0FBB1F6A95E2F72A2B2BB9AFEB7D
:10038000BDE51197F1F700C000005BB12281BC010F
:1003900002C0660F771F2A95E2F79B01209525235F
:1003A0002BB92BB16181DC0102C0AA0FBB1F6A957A
:1003B000E2F72A2B2BB9AFEBBDE51197F1F700C09F
:1003C00000005BB12181BC0102C0660F771F2A9536
:1003D000E2F79B01209525232BB9415041118DCF88
:1003E00008950F931F93CF93DF938C01EB01DC01F2
:1003F000EC91F0E0EE0FFF1FE60FF71F8181928175
:1004000018161906A4F4C8010E940101D801EC9144
:10041000F0E0EE0FFF1FEC0FFD1F8181928101972D
:1004200092838183DF91CF911F910F910895C8012D
:100430000E947901F801808190E0880F991FC80F10
:10044000D91F89819A8101969A838983EBCFAF92D4
:10045000BF92CF92DF92EF92FF920F931F93CF93B1
:10046000DF93CDB7DEB72F970FB6F894DEBF0FBE80
:10047000CDBF8C0185E0E6E0F1E0DE011B96019046
:100480000D928A95E1F785E0EBE0F1E0DE0116964A
:1004900001900D928A95E1F725E0E0E1F1E0CE01CF
:1004A0000196DC0101900D922A95E1F7F801208177
:1004B0007C01213039F59E01255F3F4FCE01069624
:1004C000D22EC32EB82EA92EF80181819281892BBC
:1004D00029F0B8018D2D9C2D0E94F101F801838136
:1004E0009481892B29F0B8018B2D9A2D0E94F1015E
:1004F000F80185819681892B39F3B801C7010E94E3
:10050000F101E2CF2F960FB6F894DEBF0FBECDBF3C
:10051000DF91CF911F910F91FF90EF90DF90CF90DF
:10052000BF90AF900895E0ECF0E08081826080831E
:100530001092C50080E18093C400E1ECF0E080817E
:100540008061808380818860808386E08093C200A0
:1005500008959091C00095FFFCCF8093C600089548
:10056000CF93DF93EC018991811103C0DF91CF918B
:1005700008950E94A902F7CF8091C00087FFFCCFA9
:100580008091C60008951F93CF93DF93EC0110E094
:100590000E94BC02FE01E10FF11D1F5F80838A30C3
:1005A000B9F7C10FD11D1882DF91CF911F91089526
:1005B000529A539A549A559A569A579A0895CDB783
:1005C000DEB7C955D1090FB6F894DEBF0FBECDBF57
:1005D0000E94D8020E94930285E191E00E94B0023D
:1005E000FE01EF5AFF4F89E0DF011D928A95E9F77E
:1005F0008F01CE0101960E94C302B801CE0101967F
:100600000E949A00C8010E942702F3CF0F931F9304
:10061000CF93DF93869F8001879F100D969F100DCB
:100620001124C8010E942203EC01009729F0A801BF
:1006300070E060E00E946804CE01DF91CF911F91CD
:100640000F9108950F931F93CF93DF939C0102970F
:1006500010F422E030E0E0911A01F0911B0190E0EB
:1006600080E0B0E0A0E0309791F4009709F445C035
:10067000821B930B84309105B8F58A819B816115AB
:10068000710569F1FB0193838283FE0111C04081F2
:1006900051810281138142175307F0F0421753072B
:1006A00099F4109761F012960C93129713961C937D
:1006B0003296CF01DF91CF911F910F910895009352
:1006C0001A0110931B01F4CF009719F0481759072E
:1006D00018F4CA01BD01EF01DF01F801C4CF909306
:1006E0001B0180931A01D1CFFE01E80FF91F21935E
:1006F0003193029799838883DCCF80911C0190917C
:100700001D01892B41F48091020190910301909386
:100710001D0180931C0180910001909101010097BF
:1007200041F48DB79EB74091040150910501841B9F
:10073000950B40911C0150911D014817590708F075
:10074000B8CF841B950B8217930708F4B2CFB90179
:100750006E5F7F4F8617970708F4ABCF640F751F46
:1007600070931D0160931C01FA0121933193A1CF75
:10077000CF93DF939C010097E9F0FC01329713823D
:100780001282C0911A01D0911B01DE0190E080E03D
:100790002097A1F480819181280F391F80911C013D
:1007A00090911D018217930709F067C0F0931D0116
:1007B000E0931C01DF91CF910895DA01AE17BF07D6
:1007C00008F041C012964D915C911397CD014115EF
:1007D000510599F7DC011396FC93EE9312974D9116
:1007E0005D91A40FB51FEA17FB0781F420813181C9
:1007F0002E5F3F4F240F351FDC0111963C932E9343
:100800002281338113963C932E931297B0E0A0E09F
:100810008A819B810097B1F5FE0181919191E80F4A
:10082000F91F80911C0190911D018E179F0711F6F1
:10083000109759F510921B0110921A01D0931D01C7
:10084000C0931C01B7CFB383A28340815181240F91
:10085000351FA217B30771F44E5F5F4F2D913C9186
:100860001197240F351F3183208312962D913C91CF
:1008700033832283009709F0ADCFF0931B01E093FF
:100880001A0198CFDE01EC01C3CF13961C921E9281
:100890001297D4CFFC0188279927E8942191203220
:1008A000E9F3293010F02E30C8F32B3241F02D320D
:1008B00039F4689404C00E946F04820F911D219145
:1008C00020532A30C0F31EF4909581959F4F0895D0
:1008D000DC0101C06D9341505040E0F708957AE08B
:1008E000979F902D879F802D910D11240895F89446
:0208F000FFCF38
:1008F20000001E012000000203040501070001029E
:0A09020002030400014F4B0A00003D
:00000001FF
