:100000000C9434000C9451000C9451000C94510049
:100010000C9451000C9451000C9451000C9451001C
:100020000C9451000C9451000C9451000C9451000C
:100030000C9451000C9451000C9451000C945100FC
:100040000C9451000C9451000C9451000C945100EC
:100050000C9451000C9451000C9451000C945100DC
:100060000C9451000C94510011241FBECFEFD8E026
:10007000DEBFCDBF11E0A0E0B1E0E6EEF8E002C0E7
:1000800005900D92A832B107D9F721E0A8E2B1E0BE
:1000900001C01D92AD32B207E1F70E94E0020C945C
:1000A00071040C940000DC0140E050E02D91FC0153
:1000B000E40FF51F211102C0108208952032B1F320
:1000C0004F5F5F4F2083F2CFFC018191811101C00E
:1000D00008959FE9980F9A3108F48052DF01119733
:1000E0008C93F3CF0F931F93CF93DF938C01EB018E
:1000F00061E070E08AE090E00E940003FC018881EA
:10010000D801A80FB11D9C919D3211F09B32B9F41A
:1001100090838F5F888391E030E08881D801A80FB9
:10012000B11D2C9140ED420F4A30A8F02E3249F01B
:10013000CF01DF91CF911F910F910C94440490E077
:10014000EBCF31110FC0DF01A90FB11D2C938F5FD1
:1001500031E08883E2CFDF01A90FB11D2C938F5FBF
:100160009F5FF7CF80E090E0DF91CF911F910F91DB
:100170000895DF92EF92FF920F931F93CF93DF9337
:100180000F92CDB7DEB77B010E9453008C010E9415
:100190006400F801D0808FEB8D0D8A3150F081E042
:1001A0000F90DF91CF911F910F91FF90EF90DF9013
:1001B000089581E0898381818D3229F08B3219F095
:1001C00080538A3060F7BE016F5F7F4FC8010E9485
:1001D0007200BC018D2DF701099580E0E1CFFC0193
:1001E0004BB1838121E030E0B90102C0660F771F77
:1001F0008A95E2F7CB01809584238BB94BB181813D
:10020000B90102C0660F771F8A95E2F7CB0180958E
:1002100084238BB98BB1908101C0220F9A95EAF7A4
:10022000822B8BB90895FC014BB1808121E030E035
:10023000B90102C0660F771F8A95E2F7CB0180955E
:1002400084238BB94BB18281B90102C0660F771F3D
:100250008A95E2F7CB01809584238BB98BB191818C
:1002600001C0220F9A95EAF7822B8BB90895FC0101
:100270004BB1818121E030E0B90102C0660F771FE8
:100280008A95E2F7CB01809584238BB94BB18381AA
:10029000B90102C0660F771F8A95E2F7CB018095FE
:1002A00084238BB98BB1928101C0220F9A95EAF712
:1002B000822B8BB90895FC014BB1828121E030E0A3
:1002C000B90102C0660F771F8A95E2F7CB018095CE
:1002D00084238BB94BB18081B90102C0660F771FAF
:1002E0008A95E2F7CB01809584238BB98BB19381FA
:1002F00001C0220F9A95EAF7822B8BB90895FC0171
:1003000044E081E090E02BB16381DC0102C0AA0FE0
:10031000BB1F6A95E2F72A2B2BB9AFE1BEE4119718
:10032000F1F700C000005BB12381BC0102C0660F81
:10033000771F2A95E2F79B01209525232BB92BB136
:100340006281DC0102C0AA0FBB1F6A95E2F72A2B6B
:100350002BB9AFE1BEE41197F1F700C000005BB12B
:100360002281BC0102C0660F771F2A95E2F79B012C
:10037000209525232BB92BB16181DC0102C0AA0F86
:10038000BB1F6A95E2F72A2B2BB9AFE1BEE41197A8
:10039000F1F700C000005BB12181BC0102C0660F13
:1003A000771F2A95E2F79B01209525232BB92BB1C6
:1003B0006081DC0102C0AA0FBB1F6A95E2F72A2BFD
:1003C0002BB9AFE1BEE41197F1F700C000005BB1BB
:1003D0002081BC0102C0660F771F2A95E2F79B01BE
:1003E000209525232BB9415041118DCF08950F93AE
:1003F0001F93CF93DF93182F092FEB011C161D06B7
:1004000024F5E0912801F0E0EE0FFF1FE050FF4FD0
:100410000190F081E02D812F902F099521979091E7
:10042000280181E0890F933009F480E0809328014E
:100430008FE19EE40197F1F700C00000209709F7D3
:10044000DF91CF911F910F91089584E0809328014F
:100450002097B1F3E0912801E150FF0BEE0FFF1F51
:10046000E050FF4F0190F081E02D812F902F0995F2
:100470002196909128018FEF890F913009F484E043
:10048000809328018FE19EE40197F1F700C00000FE
:10049000DFCF0F931F93CF93DF93CDB7DEB72C97AA
:1004A0000FB6F894DEBF0FBECDBF009123011091AF
:1004B0002401209125013091260109871A872B8775
:1004C0003C8700910E0110910F0120911001309195
:1004D00011010D831E832F83388700911201109123
:1004E0001301209114013091150109831A832B8384
:1004F0003C83893599F08A35A1F0883521F4CE0105
:1005000009960E94F7012C960FB6F894DEBF0FBE35
:10051000CDBFDF91CF911F910F910895CE01059628
:10052000F0CFCE010196EDCFE0ECF0E0808182606B
:1005300080831092C50080E18093C400E1ECF0E07C
:1005400080818061808380818860808386E0809361
:10055000C20008959091C00095FFFCCF8093C60023
:100560000895CF93DF93EC018991811103C0DF914E
:10057000CF9108950E94AA02F7CF8091C00087FF13
:10058000FCCF8091C60008951F93CF93DF93EC01B9
:1005900010E00E94BD02FE01E10FF11D1F5F80838C
:1005A0008A30B9F7C10FD11D1882DF91CF911F9109
:1005B0000895529A539A549A559A569A579A08956A
:1005C000CDB7DEB7C055D1090FB6F894DEBF0FBE68
:1005D000CDBF0E94D9020E94940286E191E00E9460
:1005E000B102CE0101960E94C40269E472E0CE011C
:1005F00001960E94B900882381F38AE191E0EFCF50
:100600000F931F93CF93DF93869F8001879F100DD9
:10061000969F100D1124C8010E941C03EC01009745
:1006200029F0A80170E060E00E946204CE01DF9131
:10063000CF911F910F9108950F931F93CF93DF9345
:100640009C01029710F422E030E0E0912901F09142
:100650002A0190E080E0B0E0A0E0309791F40097AC
:1006600009F445C0821B930B84309105B8F58A814B
:100670009B816115710569F1FB0193838283FE0102
:1006800011C0408151810281138142175307F0F05C
:100690004217530799F4109761F012960C93129732
:1006A00013961C933296CF01DF91CF911F910F913A
:1006B00008950093290110932A01F4CF009719F0AF
:1006C0004817590718F4CA01BD01EF01DF01F8010D
:1006D000C4CF90932A0180932901D1CFFE01E80F66
:1006E000F91F21933193029799838883DCCF8091FE
:1006F0002B0190912C01892B41F480910A0190915A
:100700000B0190932C0180932B0180910801909113
:100710000901009741F48DB79EB740910C015091AB
:100720000D01841B950B40912B0150912C01481712
:10073000590708F0B8CF841B950B8217930708F46C
:10074000B2CFB9016E5F7F4F8617970708F4ABCF22
:10075000640F751F70932C0160932B01FA01219394
:100760003193A1CFCF93DF939C010097E9F0FC0177
:10077000329713821282C0912901D0912A01DE01A1
:1007800090E080E02097A1F480819181280F391FAB
:1007900080912B0190912C018217930709F067C07B
:1007A000F0932C01E0932B01DF91CF910895DA01B2
:1007B000AE17BF0708F041C012964D915C91139798
:1007C000CD014115510599F7DC011396FC93EE9389
:1007D00012974D915D91A40FB51FEA17FB0781F4A5
:1007E000208131812E5F3F4F240F351FDC01119690
:1007F0003C932E932281338113963C932E93129730
:10080000B0E0A0E08A819B810097B1F5FE01819163
:100810009191E80FF91F80912B0190912C018E1777
:100820009F0711F6109759F510922A01109229018D
:10083000D0932C01C0932B01B7CFB383A283408107
:100840005181240F351FA217B30771F44E5F5F4F1C
:100850002D913C911197240F351F318320831296DF
:100860002D913C9133832283009709F0ADCFF09313
:100870002A01E093290198CFDE01EC01C3CF139642
:100880001C921E921297D4CFFC0188279927E894D6
:1008900021912032E9F3293010F02E30C8F32B32A9
:1008A00041F02D3239F4689404C00E946904820F2B
:1008B000911D219120532A30C0F31EF4909581950B
:1008C0009F4F0895DC0101C06D9341505040E0F707
:1008D00008957AE0979F902D879F802D910D112488
:0608E0000895F894FFCF1B
:1008E600EF00130137015B0100002D012000070016
:1008F6000102030400014F4B0A005B4552524F525E
:080906005D0A00020304050074
:00000001FF
