:100000000C9434000C9451000C9451000C94510049
:100010000C9451000C9451000C9451000C9451001C
:100020000C9451000C9451000C9451000C94FF015D
:100030000C9451000C94F5010C9451000C94510057
:100040000C9451000C9451000C9451000C945100EC
:100050000C9451000C9451000C9451000C945100DC
:100060000C9451000C94510011241FBECFEFD8E026
:10007000DEBFCDBF11E0A0E0B1E0E8E3FDE002C0EB
:1000800005900D92AC31B107D9F721E0ACE1B1E0B8
:1000900001C01D92A332B207E1F70E94F7020C944F
:1000A0009A060C940000DC0140E050E02D91FC0128
:1000B000E40FF51F211102C0108208952032B1F320
:1000C0004F5F5F4F2083F2CFFC018191811101C00E
:1000D00008959FE9980F9A3108F48052DF01119733
:1000E0008C93F3CF0F931F93CF93DF938C01EB018E
:1000F00061E070E08AE090E00E942905FC018881BF
:10010000D801A80FB11D9C919D3211F09B32B9F41A
:1001100090838F5F888391E030E08881D801A80FB9
:10012000B11D2C9140ED420F4A30A8F02E3249F01B
:10013000CF01DF91CF911F910F910C946D0690E04C
:10014000EBCF31110FC0DF01A90FB11D2C938F5FD1
:1001500031E08883E2CFDF01A90FB11D2C938F5FBF
:100160009F5FF7CF80E090E0DF91CF911F910F91DB
:100170000895DF92EF92FF920F931F93CF93DF9337
:100180000F92CDB7DEB77B010E9453008C010E9415
:100190006400F801D0808FEB8D0D8A3150F081E042
:1001A0000F90DF91CF911F910F91FF90EF90DF9013
:1001B0000895F3E5DF1207C060E070E083E5F70122
:1001C000099580E0EDCF81E08983F80181818D324E
:1001D00029F08B3219F080538A3008F7BE016F5F27
:1001E0007F4FC8010E947200BC018D2DE8CFFC0139
:1001F0008081817080838081DB0111969C9121E058
:1002000030E001C0220F9A95EAF7822B808308958F
:10021000FC018081817080838081DB0112969C913A
:1002200021E030E001C0220F9A95EAF7822B80830B
:100230000895FC018081817080838081DB011396A9
:100240009C9121E030E001C0220F9A95EAF7822BC1
:1002500080830895FC018081817080838081DB012F
:1002600014969C9121E030E001C0220F9A95EAF7A4
:10027000822B80830895EF92FF920F931F93CF9369
:10028000DF93182F092FF62EE72EEA011C161D0604
:1002900054F510921D01E0911D01F0E0EE0FFF1FDB
:1002A000E050FF4F0190F081E02D6F2D7E2D812FCA
:1002B000902F0995219790911D0181E0890F93302E
:1002C00009F480E080931D018FE19EE40197F1F72E
:1002D00000C000002097F9F6DF91CF911F910F9198
:1002E000FF90EF90089584E080931D012097A1F383
:1002F000E0911D01E150FF0BEE0FFF1FE050FF4F9B
:100300000190F081E02D6F2D7E2D812F902F09958A
:10031000219690911D018FEF890F913009F484E0AF
:1003200080931D018FE19EE40197F1F700C000006A
:10033000DDCFCF93DF93CDB7DEB72F970FB6F8940D
:10034000DEBF0FBECDBFAB019BB19B8732E03C87C8
:1003500023E02D8794E09E8765E06F877BB17E83E5
:100360001F82388729879A8778B179833A832B83CC
:100370009C836D838935F1F068F4833509F1883504
:1003800089F02F960FB6F894DEBF0FBECDBFDF9178
:10039000CF9108958A35A9F7BE016F5F7F4F8BE239
:1003A00090E005C0BE01655F7F4F88E290E00E944B
:1003B0003B01E7CFBE016A5F7F4F85E290E0F7CF58
:1003C00080911C0164EB70E0882339F080E090E0BC
:1003D0000E94300210921C01D4CF84EB90E00E9466
:1003E000300281E080931C01CCCF1F921FB61F9278
:1003F000112410921E011F901FBE1F901895189572
:10040000219A82E88093800083E080936F0087E0E8
:10041000809389008FEC809388008CE9809387001B
:100420008FE3809386008AE18093810008959FEC9A
:1004300087E021E020931E0130911E013111FCCF95
:1004400080938900909388003FEF83EF91E03150D3
:1004500080409040E1F700C0000092E380E0EACFE6
:10046000EF92FF920F931F93CF93DF9300D000D0B2
:1004700000D0CDB7DEB76D837E839C0140E050E0B5
:1004800029833A834B835C83CA01B9010E942E04FD
:100490007B018C01AD81BE81CD01A0E0B0E08983FC
:1004A0009A83AB83BC83BC01CD010E942E049B01C7
:1004B000AC01E982FA820B831C8369817A818B818A
:1004C0009C810E948D0320E030E84BE355E4698372
:1004D0007A838B839C8369817A818B819C810E9442
:1004E000BC0420E030EE49EF54E469837A838B83C7
:1004F0009C8369817A818B819C810E94210369831D
:100500007A838B839C8369817A818B819C810E9411
:10051000FF0381E080931E0180911E018111FCCFB9
:1005200070938900609388000F900F900F900F9048
:100530000F900F90DF91CF911F910F91FF90EF904F
:100540000895E0ECF0E08081826080831092C50025
:1005500080E18093C400E1ECF0E0808180618083E1
:1005600080818860808386E08093C20008959091A6
:10057000C00095FFFCCF8093C6000895CF93DF9312
:10058000EC018991811103C0DF91CF9108950E9400
:10059000B702F7CF8091C00087FFFCCF8091C600E3
:1005A00008951F93CF93DF93EC0110E00E94CA02DD
:1005B000FE01E10FF11D1F5F80838A30B9F7C10F83
:1005C000D11D1882DF91CF911F910895529A539AAD
:1005D000549A559A569A579A389A399A3A9A3B9A0F
:1005E0003C9A3D9A209A229A239A249A0895CDB74C
:1005F000DEB7C055D1090FB6F894DEBF0FBECDBF30
:100600000E94E6020E94A1020E940002789464EB1C
:1006100070E080E090E00E9430028EE091E00E9465
:10062000BE02CE0101960E94D10269E971E0CE01BD
:1006300001960E94B900882381F382E191E0EFCF17
:100640005058BB27AA270E9438030C9482040E94AA
:10065000740438F00E947B0420F039F49F3F19F4B1
:1006600026F40C9471040EF4E095E7FB0C946B04F3
:10067000E92F0E94930458F3BA176207730784079F
:10068000950720F079F4A6F50C94B5040EF4E095E6
:100690000B2EBA2FA02D0B01B90190010C01CA013C
:1006A000A0011124FF27591B99F0593F50F4503EE7
:1006B00068F11A16F040A22F232F342F4427585FD9
:1006C000F3CF469537952795A795F0405395C9F7F1
:1006D0007EF41F16BA0B620B730B840BBAF09150A9
:1006E000A1F0FF0FBB1F661F771F881FC2F70EC048
:1006F000BA0F621F731F841F48F48795779567951B
:10070000B795F7959E3F08F0B0CF9395880F08F006
:100710009927EE0F9795879508950E94A1030C9451
:1007200082040E947B0458F00E94740440F029F473
:100730005F3F29F00C946B0451110C94B6040C9497
:1007400071040E94930468F39923B1F3552391F344
:10075000951B550BBB27AA2762177307840738F030
:100760009F5F5F4F220F331F441FAA1FA9F335D08D
:100770000E2E3AF0E0E832D091505040E695001C41
:10078000CAF72BD0FE2F29D0660F771F881FBB1FFB
:10079000261737074807AB07B0E809F0BB0B802DD9
:1007A000BF01FF2793585F4F3AF09E3F510578F005
:1007B0000C946B040C94B6045F3FE4F3983ED4F3BE
:1007C000869577956795B795F7959F5FC9F7880FD9
:1007D000911D9695879597F90895E1E0660F771F2B
:1007E000881FBB1F621773078407BA0720F0621BBC
:1007F000730B840BBA0BEE1F88F7E09508950E94E7
:100800009B0488F09F5798F0B92F9927B751B0F003
:10081000E1F0660F771F881F991F1AF0BA95C9F784
:1008200014C0B13091F00E94B504B1E008950C9469
:10083000B504672F782F8827B85F39F0B93FCCF31C
:10084000869577956795B395D9F73EF49095809501
:10085000709561957F4F8F4F9F4F0895E89409C021
:1008600097FB3EF490958095709561957F4F8F4FE3
:100870009F4F9923A9F0F92F96E9BB279395F695F9
:10088000879577956795B795F111F8CFFAF4BB0F77
:1008900011F460FF1BC06F5F7F4F8F4F9F4F16C0DB
:1008A000882311F096E911C0772321F09EE8872F65
:1008B000762F05C0662371F096E8862F70E060E021
:1008C0002AF09A95660F771F881FDAF7880F96959A
:1008D000879597F9089597F99F6780E870E060E041
:1008E00008959FEF80EC089500240A9416161706C9
:1008F00018060906089500240A9412161306140611
:1009000005060895092E0394000C11F4882352F073
:10091000BB0F40F4BF2B11F460FF04C06F5F7F4F2B
:100920008F4F9F4F089557FD9058440F551F59F012
:100930005F3F71F04795880F97FB991F61F09F3FCC
:1009400079F087950895121613061406551FF2CFF5
:100950004695F1DF08C0161617061806991FF1CF45
:1009600086957105610508940895E894BB2766276C
:100970007727CB0197F908950E94CF040C94820445
:100980000E94740438F00E947B0420F0952311F03B
:100990000C946B040C94710411240C94B6040E9402
:1009A000930470F3959FC1F3950F50E0551F629F1C
:1009B000F001729FBB27F00DB11D639FAA27F00DB8
:1009C000B11DAA1F649F6627B00DA11D661F829FDF
:1009D0002227B00DA11D621F739FB00DA11D621FC4
:1009E000839FA00D611D221F749F3327A00D611DE1
:1009F000231F849F600D211D822F762F6A2F1124C3
:100A00009F5750409AF0F1F088234AF0EE0FFF1FF5
:100A1000BB1F661F771F881F91505040A9F79E3F4C
:100A2000510580F00C946B040C94B6045F3FE4F322
:100A3000983ED4F3869577956795B795F795E795A2
:100A40009F5FC1F7FE2B880F911D9695879597F9AB
:100A500008950F931F93CF93DF93869F8001879F05
:100A6000100D969F100D1124C8010E944505EC0140
:100A7000009729F0A80170E060E00E948B06CE018B
:100A8000DF91CF911F910F9108950F931F93CF93F3
:100A9000DF939C01029710F422E030E0E0911F0107
:100AA000F091200190E080E0B0E0A0E0309791F478
:100AB000009709F445C0821B930B84309105B8F56B
:100AC0008A819B816115710569F1FB0193838283A2
:100AD000FE0111C0408151810281138142175307E9
:100AE000F0F04217530799F4109761F012960C93A7
:100AF000129713961C933296CF01DF91CF911F91DD
:100B00000F91089500931F0110932001F4CF0097D7
:100B100019F04817590718F4CA01BD01EF01DF01A8
:100B2000F801C4CF9093200180931F01D1CFFE0123
:100B3000E80FF91F21933193029799838883DCCFC3
:100B40008091210190912201892B41F480910A0129
:100B500090910B01909322018093210180910801D3
:100B600090910901009741F48DB79EB740910C0117
:100B700050910D01841B950B409121015091220150
:100B80004817590708F0B8CF841B950B82179307B5
:100B900008F4B2CFB9016E5F7F4F8617970708F44C
:100BA000ABCF640F751F7093220160932101FA018E
:100BB00021933193A1CFCF93DF939C010097E9F06C
:100BC000FC01329713821282C0911F01D091200143
:100BD000DE0190E080E02097A1F480819181280FD0
:100BE000391F80912101909122018217930709F00A
:100BF00067C0F0932201E0932101DF91CF91089526
:100C0000DA01AE17BF0708F041C012964D915C9112
:100C10001397CD014115510599F7DC011396FC930B
:100C2000EE9312974D915D91A40FB51FEA17FB0744
:100C300081F4208131812E5F3F4F240F351FDC016D
:100C400011963C932E932281338113963C932E93DD
:100C50001297B0E0A0E08A819B810097B1F5FE0178
:100C600081919191E80FF91F8091210190912201CA
:100C70008E179F0711F6109759F5109220011092C8
:100C80001F01D0932201C0932101B7CFB383A28368
:100C900040815181240F351FA217B30771F44E5FB5
:100CA0005F4F2D913C911197240F351F3183208385
:100CB00012962D913C9133832283009709F0ADCF9A
:100CC000F0932001E0931F0198CFDE01EC01C3CF28
:100CD00013961C921E921297D4CFFC018827992755
:100CE000E89421912032E9F3293010F02E30C8F336
:100CF0002B3241F02D3239F4689404C00E949206E0
:100D0000820F911D219120532A30C0F31EF490953B
:100D100081959F4F0895DC0101C06D934150504073
:100D2000E0F708957AE0979F902D879F802D910D91
:080D300011240895F894FFCF8F
:100D3800F700080119012A010000230120004F4B88
:0C0D48000A005B4552524F525D0A000049
:00000001FF
