:100000000C9434000C943E000C943E000C943E0082
:100010000C943E000C943E000C943E000C943E0068
:100020000C943E000C943E000C943E000C943E0058
:100030000C943E000C943E000C943E000C943E0048
:100040000C943E000C943E000C943E000C943E0038
:100050000C943E000C943E000C943E000C943E0028
:100060000C943E000C943E0011241FBECFEFD8E04C
:10007000DEBFCDBF0E9493000C94B1000C94000031
:10008000E0ECF0E080818D7F80831092C50088E0F5
:100090008093C400E1ECF0E0808180618083808106
:1000A0008860808386E08093C20080818061808345
:1000B00008959091C00095FFFCCF8093C6000895ED
:1000C000CF93DF93EC01899118161CF0DF91CF914B
:1000D00008950E945900F7CF8091C00087FFFCCFA0
:1000E0008091C6000895EF92FF920F931F93CF93D4
:1000F000DF93EC01062F7C0110E00E946C001F5F73
:10010000F70181937F01101710F48D30B1F7FE01D4
:10011000E10FF11D1082CE01DF91CF911F910F9160
:10012000FF90EF900895559A569A0E9440002D9A9C
:100130005E9A2FEF81EE94E0215080409040E1F7ED
:1001400000C000002D985E982FEF81EE94E02150C2
:1001500080409040E1F700C0000081E60E94590015
:06016000E6CFF894FFCF8A
:00000001FF
