:100000000C9452000C946F000C946F000C946F00D1
:100010000C946F000C946F000C946F000C946F00A4
:100020000C946F000C946F000C946F000C946F0094
:100030000C946F000C946F000C946F000C946F0084
:100040000C946F000C946F000C946F000C946F0074
:100050000C946F000C946F000C946F000C946F0064
:100060000C946F000C946F004E414E494E49545908
:10007000494E46CDCCCC3D0AD7233C17B7D1387773
:10008000CC2B329595E6241FB14F0A000020410089
:1000900000C84200401C4620BCBE4CCA1B0E5AAED3
:1000A000C59D740011241FBECFEFD8E0DEBFCDBFC9
:1000B00011E0A0E0B1E0EAE5FBE002C005900D929E
:1000C000A430B107D9F721E0A4E0B1E001C01D924E
:1000D000A630B207E1F70E94B3010C94AB050C9473
:1000E0000000DC0140E050E02D91FC01E40FF51F21
:1000F000211102C0108208952032B1F34F5F5F4F8B
:100100002083F2CF9F92AF92BF92CF92DF92EF9275
:10011000FF920F931F93CF93DF9300D000D000D0B6
:10012000CDB7DEB76D837E83ED81FE812081820FA6
:10013000911D0E94DB025B016C017B018C01912C03
:1001400020E030E0A901E982FA820B831C836981F7
:100150007A818B819C810E94C00181111FC0ED8139
:10016000FE818081890D8083A982BA82CB82DC8264
:1001700069817A818B819C810F900F900F900F90F5
:100180000F900F90DF91CF911F910F91FF90EF9003
:10019000DF90CF90BF90AF909F90089520E030E027
:1001A00040E251E4E982FA820B831C8369817A81FF
:1001B0008B819C810E94C5017B018C019394C0CFEF
:1001C000CF92DF92EF92FF921F93CF93DF9300D0F5
:1001D00000D00F92CDB7DEB77B0119820E9471006B
:1001E0006C018981F601E80FF11D1081111102C027
:1001F00080E02CC09FEB910F9A3138F58F5F898397
:10020000F601E80FF11D80818D3229F08B3219F053
:1002100080538A30D0F4BE016F5F7F4FC6010E94C9
:1002200082006A837B838C839D836A817B818C813E
:100230009D810E94370289818F5F89831835E9F09B
:1002400094F41734A9F01335F1F081E00F900F907A
:100250000F900F900F90DF91CF911F91FF90EF9033
:10026000DF90CF900895193559F4F7016283B9CF23
:10027000623058F7F7011082B4CFF7016183B1CF34
:10028000F7016383AECFF7016483ABCFCB0140E0CE
:1002900050E0FB0166277727681B790B9F0197FDCC
:1002A0009B01421753070CF008952D9A5E9A2FEF89
:1002B00031EEA4E021503040A040E1F700C0000042
:1002C0002D985E982FEF31EEA4E021503040A040F1
:1002D000E1F700C000004F5F5F4FE0CF1092C50014
:1002E00088E08093C400E1ECF0E08081806180834D
:1002F00080818860808386E08093C2000895909119
:10030000C00095FFFCCF8093C6000895CF93DF9384
:10031000EC018991811103C0DF91CF9108950E9472
:100320007F01F7CF8091C00087FFFCCF8091C6008E
:10033000805808951F93CF93DF93EC0110E00E9443
:100340009201FE01E10FF11D1F5F80838A30B9F732
:10035000C10FD11D1882DF91CF911F910895559A39
:10036000569A579A08950E94AF010E946E0180E04C
:1003700091E00E9486010E9492010E947F01FBCFC2
:100380000E94660208F481E008950E94D9010C944D
:10039000A1020E949A0258F00E94930240F029F4B0
:1003A0005F3F29F00C948A0251110C94D5020C94F1
:1003B00090020E94B20268F39923B1F3552391F39E
:1003C000951B550BBB27AA2762177307840738F0C4
:1003D0009F5F5F4F220F331F441FAA1FA9F335D021
:1003E0000E2E3AF0E0E832D091505040E695001CD5
:1003F000CAF72BD0FE2F29D0660F771F881FBB1F8F
:10040000261737074807AB07B0E809F0BB0B802D6C
:10041000BF01FF2793585F4F3AF09E3F510578F098
:100420000C948A020C94D5025F3FE4F3983ED4F317
:10043000869577956795B795F7959F5FC9F7880F6C
:10044000911D9695879597F90895E1E0660F771FBE
:10045000881FBB1F621773078407BA0720F0621B4F
:10046000730B840BBA0BEE1F88F7E09508950E947A
:10047000BA0288F09F5798F0B92F9927B751B0F07A
:10048000E1F0660F771F881F991F1AF0BA95C9F718
:1004900014C0B13091F00E94D402B1E008950C94E0
:1004A000D402672F782F8827B85F39F0B93FCCF393
:1004B000869577956795B395D9F73EF49095809595
:1004C000709561957F4F8F4F9F4F0895990F00084A
:1004D000550FAA0BE0E8FEEF16161706E807F90716
:1004E000C0F012161306E407F50798F0621B730BB1
:1004F000840B950B39F40A2661F0232B242B252B32
:1005000021F408950A2609F4A140A6958FEF811DD4
:10051000811D089597F99F6780E870E060E0089575
:100520009FEF80EC089500240A941616170618060B
:100530000906089500240A941216130614060506E7
:100540000895092E0394000C11F4882352F0BB0F78
:1005500040F4BF2B11F460FF04C06F5F7F4F8F4FDB
:100560009F4F089557FD9058440F551F59F05F3F16
:1005700071F04795880F97FB991F61F09F3F79F0C5
:1005800087950895121613061406551FF2CF469547
:10059000F1DF08C0161617061806991FF1CF8695C9
:1005A0007105610508940895E894BB2766277727AD
:1005B000CB0197F90895662777270C94DF02A8E00E
:1005C000B0E0E5EEF2E00C946D058D839E836B0147
:1005D0006115710529F0ED81FE81DB01ED93FC933E
:1005E000ED80FE8097012F5F3F4F3E832D83D70123
:1005F0000C91802F90E00E948C045C01892B81F784
:100600000D32D9F5ED81FE81008197012E5F3F4FBC
:100610003E832D8311E0ED80FE80F1E0EF1AF108BA
:1006200043E050E060E770E0C7010E949504892B29
:1006300079F5ED80FE8022E0E20EF11C45E050E00D
:100640006BE670E0C7010E949504892B29F4ED80C8
:10065000FE8037E0E30EF11CC114D10419F0D6017D
:10066000ED92FC9220E030E040E85FE7112339F1A1
:1006700020E030E040E85FEF22C00B3239F4AD817A
:10068000BE810C91F7013296FE83ED8310E0C3CF5B
:1006900043E050E068E670E0C7010E949504892BB2
:1006A000D1F4C114D10409F42EC1ED81FE8132963A
:1006B000D601ED93FC9320E030E040EC5FE7298326
:1006C0003A834B835C8369817A818B819C812896F4
:1006D000EAE00C948905F12CE12C19821A821B8224
:1006E0001C82F0EDF00FFA30B8F5E12FE260812FB7
:1006F000887012FF0CC0811103C03FEFE31AF30AA8
:10070000AD81BE810D91BE83AD831E2FEACF8823BC
:1007100019F041E0E41AF108A5E0B0E029813A813E
:100720004B815C810E945A05DC01CB01880F991F27
:10073000AA1FBB1F9C01AD012F0F311D411D511D73
:1007400029833A834B835C83283939494949594184
:10075000B8F2E12FE660D4CFFE3F29F413FD26C0A6
:10076000E12FE860CDCF0F7D053401F5ED81FE81ED
:1007700080818D3241F410619F012E5F3F4F818156
:1007800042E050E009C02D813E818B3209F456C011
:100790002F5F3F4F41E050E0805395E08A3008F4EE
:1007A00056C0F901E41BF50BFE83ED8311FF0AC06F
:1007B000C114D10439F02D813E8121503109F60157
:1007C0003183208369817A818B819C810E94AD0471
:1007D000462F572FBC014D835E836F83788713703C
:1007E000133039F4DC01CA01B0588D839E83AF8386
:1007F000B8872D813E814F81588529833A834B8369
:100800005C8320E030E0A9016D817E818F81988535
:100810000E94C001882309F456CFF7FE6FC0F194FF
:10082000E194F10847E850E05E834D83CD80DE809F
:1008300038E1C31AD10800E210E037C02E5F3F4F05
:10084000AD81BE8111968C919BCF2D813E81F0E8C8
:10085000AF16FCE0BF0654F49A9DA0019B9D500D7D
:100860001124440F551F5A01A80EB11CD9018D91B6
:10087000BE83AD8380538A3040F314FF03C0B1942C
:10088000A194B108EA0CFB1C91CF259135914591BB
:10089000549169817A818B819C810E94EA046983E9
:1008A0007A838B839C83E01AF10A89819A81AB81D8
:1008B000BC81ED81FE81E016F1063CF73497FE83A2
:1008C000ED8315950795EC15FD0579F78A2F880FAF
:1008D0008B2F881F8F3F59F020E030E0A9016981FC
:1008E0007A818B819C810E94C0018111ECCE82E2D1
:1008F00090E09093050180930401E5CE2FE930E06C
:100900003E832D8393CF80E090E0A0ECBFE7898306
:100910009A83AB83BC83D7CE91110C945705803258
:1009200019F089508550C8F70895FB01DC0141504A
:10093000504088F08D9181341CF08B350CF4805E32
:10094000659161341CF06B350CF4605E861B61119F
:1009500071F3990B0895881BFCCFE89409C097FBAD
:100960003EF490958095709561957F4F8F4F9F4F86
:100970009923A9F0F92F96E9BB279395F6958795CA
:1009800077956795B795F111F8CFFAF4BB0F11F48D
:1009900060FF1BC06F5F7F4F8F4F9F4F16C0882334
:1009A00011F096E911C0772321F09EE8872F762F6A
:1009B00005C0662371F096E8862F70E060E02AF0AB
:1009C0009A95660F771F881FDAF7880F9695879597
:1009D00097F908950E94FD040C94A1020E949302CD
:1009E00038F00E949A0220F0952311F00C948A02AC
:1009F0000C94900211240C94D5020E94B20270F360
:100A0000959FC1F3950F50E0551F629FF001729FB3
:100A1000BB27F00DB11D639FAA27F00DB11DAA1FC2
:100A2000649F6627B00DA11D661F829F2227B00D0F
:100A3000A11D621F739FB00DA11D621F839FA00D9A
:100A4000611D221F749F3327A00D611D231F849FEA
:100A5000600D211D822F762F6A2F11249F57504041
:100A60009AF0F1F088234AF0EE0FFF1FBB1F661FBC
:100A7000771F881F91505040A9F79E3F510580F085
:100A80000C948A020C94D5025F3FE4F3983ED4F3B1
:100A9000869577956795B795F795E7959F5FC1F729
:100AA000FE2B880F911D9695879597F908959927A4
:100AB000882708950E949C05A59F900DB49F900DD6
:100AC000A49F800D911D112408952F923F924F9263
:100AD0005F926F927F928F929F92AF92BF92CF92CE
:100AE000DF92EF92FF920F931F93CF93DF93CDB7D7
:100AF000DEB7CA1BDB0B0FB6F894DEBF0FBECDBF4F
:100B000009942A88398848885F846E847D848C841F
:100B10009B84AA84B984C884DF80EE80FD800C8128
:100B20001B81AA81B981CE0FD11D0FB6F894DEBF0B
:100B30000FBECDBFED010895A29FB001B39FC001CC
:100B4000A39F700D811D1124911DB29F700D811DF9
:0A0B50001124911D0895F894FFCFC1
:040B5A004F4B0A00F3
:00000001FF
