:100000000C9434000C9451000C9451000C94510049
:100010000C9451000C9451000C9451000C9451001C
:100020000C9451000C9451000C9451000C9451000C
:100030000C9451000C9451000C9451000C945100FC
:100040000C9451000C9451000C9451000C945100EC
:100050000C9451000C9451000C9451000C945100DC
:100060000C9451000C94510011241FBECFEFD8E026
:10007000DEBFCDBF11E0A0E0B1E0EEE6F7E002C0E8
:1000800005900D92AC31B107D9F721E0ACE1B1E0B8
:1000900001C01D92A132B207E1F70E9424020C9424
:1000A000B5030C940000DC0140E050E02D91FC0110
:1000B000E40FF51F211102C0108208952032B1F320
:1000C0004F5F5F4F2083F2CFFC018191811101C00E
:1000D00008959FE9980F9A3108F48052DF01119733
:1000E0008C93F3CF0F931F93CF93DF938C01EB018E
:1000F00061E070E08AE090E00E944402FC018881A7
:10010000D801A80FB11D9C919D3211F09B32B9F41A
:1001100090838F5F888391E030E08881D801A80FB9
:10012000B11D2C9140ED420F4A30A8F02E3249F01B
:10013000CF01DF91CF911F910F910C94880390E034
:10014000EBCF31110FC0DF01A90FB11D2C938F5FD1
:1001500031E08883E2CFDF01A90FB11D2C938F5FBF
:100160009F5FF7CF80E090E0DF91CF911F910F91DB
:100170000895DF92EF92FF920F931F93CF93DF9337
:100180000F92CDB7DEB77B010E9453008C010E9415
:100190006400F801D0808FEB8D0D8A3150F081E042
:1001A0000F90DF91CF911F910F91FF90EF90DF9013
:1001B000089581E0898381818D3229F08B3219F095
:1001C00080538A3060F7BE016F5F7F4FC8010E9485
:1001D0007200BC018D2DF701099580E0E1CFFC0193
:1001E0008081817080838081DB0111969C9121E068
:1001F00030E001C0220F9A95EAF7822B80830895A0
:10020000FC018081817080838081DB0112969C914A
:1002100021E030E001C0220F9A95EAF7822B80831B
:100220000895FC018081817080838081DB011396B9
:100230009C9121E030E001C0220F9A95EAF7822BD1
:1002400080830895FC018081817080838081DB013F
:1002500014969C9121E030E001C0220F9A95EAF7B4
:10026000822B80830895EF92FF920F931F93CF9379
:10027000DF93182F092FF62EE72EEA011C161D0614
:1002800054F510921C01E0911C01F0E0EE0FFF1FED
:10029000E050FF4F0190F081E02D6F2D7E2D812FDA
:1002A000902F0995219790911C0181E0890F93303F
:1002B00009F480E080931C018FE19EE40197F1F73F
:1002C00000C000002097F9F6DF91CF911F910F91A8
:1002D000FF90EF90089584E080931C012097A1F394
:1002E000E0911C01E150FF0BEE0FFF1FE050FF4FAC
:1002F0000190F081E02D6F2D7E2D812F902F09959B
:10030000219690911C018FEF890F913009F484E0C0
:1003100080931C018FE19EE40197F1F700C000007B
:10032000DDCFCF93DF93CDB7DEB72F970FB6F8941D
:10033000DEBF0FBECDBFAB019BB19B8762E06C8778
:1003400033E03D8724E02E8795E09F877BB17E8355
:100350006F83388729879A8778B179836A833B834B
:100360002C839D838935A1F08A35C1F0883539F415
:10037000BE01655F7F4F88E290E00E9433012F96B7
:100380000FB6F894DEBF0FBECDBFDF91CF910895B9
:10039000BE016A5F7F4F8BE290E0EFCFBE016F5FDF
:1003A0007F4FF9CFE0ECF0E0808182608083109293
:1003B000C50080E18093C400E1ECF0E080818061C1
:1003C000808380818860808386E08093C200089566
:1003D0009091C00095FFFCCF8093C6000895CF9305
:1003E000DF93EC018991811103C0DF91CF910895D2
:1003F0000E94E801F7CF8091C00087FFFCCF809179
:10040000C60008951F93CF93DF93EC0110E00E9484
:10041000FB01FE01E10FF11D1F5F80838A30B9F7F8
:10042000C10FD11D1882DF91CF911F910895529A6B
:10043000539A549A559A569A579A389A399A3A9A98
:100440003B9A3C9A3D9A0895CDB7DEB7C055D10985
:100450000FB6F894DEBF0FBECDBF0E9417020E94F8
:10046000D2018EE091E00E94EF01CE0101960E9440
:10047000020261E971E0CE0101960E94B900882371
:1004800081F382E191E0EFCF0F931F93CF93DF933E
:10049000869F8001879F100D969F100D1124C80123
:1004A0000E946002EC01009729F0A80170E060E072
:1004B0000E94A603CE01DF91CF911F910F91089565
:1004C0000F931F93CF93DF939C01029710F422E0C8
:1004D00030E0E0911D01F0911E0190E080E0B0E07D
:1004E000A0E0309791F4009709F445C0821B930B6C
:1004F00084309105B8F58A819B816115710569F198
:10050000FB0193838283FE0111C0408151810281EE
:10051000138142175307F0F04217530799F41097CD
:1005200061F012960C93129713961C933296CF019A
:10053000DF91CF911F910F91089500931D011093AA
:100540001E01F4CF009719F04817590718F4CA0193
:10055000BD01EF01DF01F801C4CF90931E0180932C
:100560001D01D1CFFE01E80FF91F219331930297AE
:1005700099838883DCCF80911F0190912001892B82
:1005800041F480910A0190910B0190932001809396
:100590001F018091080190910901009741F48DB7E6
:1005A0009EB740910C0150910D01841B950B409119
:1005B0001F01509120014817590708F0B8CF841B3C
:1005C000950B8217930708F4B2CFB9016E5F7F4F86
:1005D0008617970708F4ABCF640F751F709320013F
:1005E00060931F01FA0121933193A1CFCF93DF9341
:1005F0009C010097E9F0FC01329713821282C091AE
:100600001D01D0911E01DE0190E080E02097A1F451
:1006100080819181280F391F80911F0190912001C5
:100620008217930709F067C0F0932001E0931F0140
:10063000DF91CF910895DA01AE17BF0708F041C0EE
:1006400012964D915C911397CD014115510599F783
:10065000DC011396FC93EE9312974D915D91A40FDC
:10066000B51FEA17FB0781F4208131812E5F3F4FD0
:10067000240F351FDC0111963C932E932281338188
:1006800013963C932E931297B0E0A0E08A819B8151
:100690000097B1F5FE0181919191E80FF91F8091CA
:1006A0001F01909120018E179F0711F6109759F5A1
:1006B00010921E0110921D01D0932001C0931F01C2
:1006C000B7CFB383A28340815181240F351FA21776
:1006D000B30771F44E5F5F4F2D913C911197240F3A
:1006E000351F3183208312962D913C9133832283D1
:1006F000009709F0ADCFF0931E01E0931D0198CF54
:10070000DE01EC01C3CF13961C921E921297D4CF38
:10071000FC0188279927E89421912032E9F32930B8
:1007200010F02E30C8F32B3241F02D3239F468949A
:1007300004C00E94AD03820F911D219120532A30E5
:10074000C0F31EF4909581959F4F0895DC0101C080
:100750006D9341505040E0F708957AE0979F902DB7
:0E076000879F802D910D11240895F894FFCFEE
:10076E00EF000001110122010000210120004F4B7A
:0C077E000A005B4552524F525D0A000019
:00000001FF
