:100000000C9434000C9451000C9451000C94510049
:100010000C9451000C9451000C9451000C9451001C
:100020000C9451000C9451000C9451000C9451000C
:100030000C9451000C9451000C9451000C945100FC
:100040000C9451000C9451000C9451000C945100EC
:100050000C9451000C9451000C9451000C945100DC
:100060000C9451000C94510011241FBECFEFD8E026
:10007000DEBFCDBF11E0A0E0B1E0EEE4F8E002C0E9
:1000800005900D92A032B107D9F721E0A0E2B1E0CE
:1000900001C01D92A432B207E1F70E9494020C94B1
:1000A00025040C940000DC0140E050E02D91FC019F
:1000B000E40FF51F211102C0108208952032B1F320
:1000C0004F5F5F4F2083F2CFFC018191811101C00E
:1000D00008959FE9980F9A3108F48052DF01119733
:1000E0008C93F3CF0F931F93CF93DF938C01EB018E
:1000F00061E070E08AE090E00E94B402FC01888137
:10010000D801A80FB11D9C919D3211F09B32B9F41A
:1001100090838F5F888391E030E08881D801A80FB9
:10012000B11D2C9140ED420F4A30A8F02E3249F01B
:10013000CF01DF91CF911F910F910C94F80390E0C4
:10014000EBCF31110FC0DF01A90FB11D2C938F5FD1
:1001500031E08883E2CFDF01A90FB11D2C938F5FBF
:100160009F5FF7CF80E090E0DF91CF911F910F91DB
:100170000895DF92EF92FF920F931F93CF93DF9337
:100180000F92CDB7DEB77B010E9453008C010E9415
:100190006400F801D0808FEB8D0D8A3150F081E042
:1001A0000F90DF91CF911F910F91FF90EF90DF9013
:1001B000089581E0898381818D3229F08B3219F095
:1001C00080538A3060F7BE016F5F7F4FC8010E9485
:1001D0007200BC018D2DF701099580E0E1CFFC0193
:1001E00044E081E090E02BB16081DC0102C0AA0F05
:1001F000BB1F6A95E2F72A2B2BB9AFE1BEE411973A
:10020000F1F700C000005BB12081BC0102C0660FA5
:10021000771F2A95E2F79B01209525232BB92BB157
:100220006181DC0102C0AA0FBB1F6A95E2F72A2B8D
:100230002BB9AFE1BEE41197F1F700C000005BB14C
:100240002181BC0102C0660F771F2A95E2F79B014E
:10025000209525232BB92BB16281DC0102C0AA0FA6
:10026000BB1F6A95E2F72A2B2BB9AFE1BEE41197C9
:10027000F1F700C000005BB12281BC0102C0660F33
:10028000771F2A95E2F79B01209525232BB92BB1E7
:100290006381DC0102C0AA0FBB1F6A95E2F72A2B1B
:1002A0002BB9AFE1BEE41197F1F700C000005BB1DC
:1002B0002381BC0102C0660F771F2A95E2F79B01DC
:1002C000209525232BB9415041118DCF0895FC0174
:1002D00044E081E090E02BB16381DC0102C0AA0F11
:1002E000BB1F6A95E2F72A2B2BB9AFE1BEE4119749
:1002F000F1F700C000005BB12381BC0102C0660FB2
:10030000771F2A95E2F79B01209525232BB92BB166
:100310006281DC0102C0AA0FBB1F6A95E2F72A2B9B
:100320002BB9AFE1BEE41197F1F700C000005BB15B
:100330002281BC0102C0660F771F2A95E2F79B015C
:10034000209525232BB92BB16181DC0102C0AA0FB6
:10035000BB1F6A95E2F72A2B2BB9AFE1BEE41197D8
:10036000F1F700C000005BB12181BC0102C0660F43
:10037000771F2A95E2F79B01209525232BB92BB1F6
:100380006081DC0102C0AA0FBB1F6A95E2F72A2B2D
:100390002BB9AFE1BEE41197F1F700C000005BB1EB
:1003A0002081BC0102C0660F771F2A95E2F79B01EE
:1003B000209525232BB9415041118DCF08950F93DE
:1003C0001F93CF93DF93182F092FEB011C161D06E7
:1003D0008CF4812F902F0E94EF0021972097C9F76E
:1003E000DF91CF911F910F910895812F902F0E943F
:1003F000670121962097C9F7F3CF0F931F93CF93EF
:10040000DF93CDB7DEB72C970FB6F894DEBF0FBEE3
:10041000CDBF00911B0110911C0120911D01309155
:100420001E0109871A872B873C87009106011091CE
:10043000070120910801309109010D831E832F834C
:10044000388700910A0110910B0120910C01309125
:100450000D0109831A832B833C83893599F08A35F2
:10046000A1F0883521F4CE0109960E94DF012C9677
:100470000FB6F894DEBF0FBECDBFDF91CF911F91B5
:100480000F910895CE010596F0CFCE010196EDCFE4
:10049000E0ECF0E08081826080831092C50080E112
:1004A0008093C400E1ECF0E08081806180838081F2
:1004B0008860808386E08093C20008959091C00098
:1004C00095FFFCCF8093C6000895CF93DF93EC0196
:1004D0008991811103C0DF91CF9108950E945E023E
:1004E000F7CF8091C00087FFFCCF8091C6000895B0
:1004F0001F93CF93DF93EC0110E00E947102FE0185
:10050000E10FF11D1F5F80838A30B9F7C10FD11D44
:100510001882DF91CF911F910895529A539A549A5D
:10052000559A569A579A0895CDB7DEB7C055D10956
:100530000FB6F894DEBF0FBECDBF0E948D020E94A1
:1005400048028EE091E00E946502CE0101960E9471
:1005500078026DEF71E0CE0101960E94B900882308
:1005600081F382E191E0EFCF0F931F93CF93DF935D
:10057000869F8001879F100D969F100D1124C80142
:100580000E94D002EC01009729F0A80170E060E021
:100590000E941604CE01DF91CF911F910F91089513
:1005A0000F931F93CF93DF939C01029710F422E0E7
:1005B00030E0E0912001F091210190E080E0B0E096
:1005C000A0E0309791F4009709F445C0821B930B8B
:1005D00084309105B8F58A819B816115710569F1B7
:1005E000FB0193838283FE0111C04081518102810E
:1005F000138142175307F0F04217530799F41097ED
:1006000061F012960C93129713961C933296CF01B9
:10061000DF91CF911F910F910895009320011093C6
:100620002101F4CF009719F04817590718F4CA01AF
:10063000BD01EF01DF01F801C4CF90932101809348
:100640002001D1CFFE01E80FF91F219331930297CA
:1006500099838883DCCF8091220190912301892B9B
:1006600041F48091020190910301909323018093C2
:1006700022018091000190910101009741F48DB712
:100680009EB74091040150910501841B950B409148
:100690002201509123014817590708F0B8CF841B55
:1006A000950B8217930708F4B2CFB9016E5F7F4FA5
:1006B0008617970708F4ABCF640F751F709323015B
:1006C00060932201FA0121933193A1CFCF93DF935D
:1006D0009C010097E9F0FC01329713821282C091CD
:1006E0002001D0912101DE0190E080E02097A1F46B
:1006F00080819181280F391F8091220190912301DF
:100700008217930709F067C0F0932301E093220159
:10071000DF91CF910895DA01AE17BF0708F041C00D
:1007200012964D915C911397CD014115510599F7A2
:10073000DC011396FC93EE9312974D915D91A40FFB
:10074000B51FEA17FB0781F4208131812E5F3F4FEF
:10075000240F351FDC0111963C932E9322813381A7
:1007600013963C932E931297B0E0A0E08A819B8170
:100770000097B1F5FE0181919191E80FF91F8091E9
:100780002201909123018E179F0711F6109759F5BA
:100790001092210110922001D0932301C0932201D5
:1007A000B7CFB383A28340815181240F351FA21795
:1007B000B30771F44E5F5F4F2D913C911197240F59
:1007C000351F3183208312962D913C9133832283F0
:1007D000009709F0ADCFF0932101E093200198CF6D
:1007E000DE01EC01C3CF13961C921E921297D4CF58
:1007F000FC0188279927E89421912032E9F32930D8
:1008000010F02E30C8F32B3241F02D3239F46894B9
:1008100004C00E941D04820F911D219120532A3093
:10082000C0F31EF4909581959F4F0895DC0101C09F
:100830006D9341505040E0F708957AE0979F902DD6
:0E084000879F802D910D11240895F894FFCF0D
:10084E0000002401200007000102030400014F4BA9
:10085E000A005B4552524F525D0A00020304050026
:00000001FF
