:100000000C9452000C946F000C946F000C946F00D1
:100010000C946F000C946F000C946F000C946F00A4
:100020000C946F000C946F000C946F000C946F0094
:100030000C946F000C946F000C946F000C946F0084
:100040000C946F000C946F000C946F000C946F0074
:100050000C946F000C946F000C946F000C946F0064
:100060000C946F000C946F004E414E494E49545908
:10007000494E46CDCCCC3D0AD7233C17B7D1387773
:10008000CC2B329595E6241FB14F0A000020410089
:1000900000C84200401C4620BCBE4CCA1B0E5AAED3
:1000A000C59D740011241FBECFEFD8E0DEBFCDBFC9
:1000B00011E0A0E0B1E0E0ECFCE002C005900D92A0
:1000C000AA30B107D9F721E0AAE0B1E001C01D9242
:1000D000A031B207E1F70E9472010C945E060C9405
:1000E0000000DC0140E050E02D91FC01E40FF51F21
:1000F000211102C0108208952032B1F34F5F5F4F8B
:100100002083F2CF0F931F93CF93DF938C01EB01EA
:1001100061E070E08AE090E00E94F20130E0288126
:10012000F801E20FF11D408150ED540F5A3030F0CC
:10013000DF91CF911F910F910C943603FC01E30FD7
:10014000F11D40832F5F28833F5FE9CFCF92DF927D
:10015000EF92FF921F93CF93DF9300D000D00F92C6
:10016000CDB7DEB77B0119820E9471006C018981D5
:10017000F601E80FF11D1081111102C080E029C0C5
:100180009FEB910F9A3120F58F5F8983F601E80F7D
:10019000F11D80818D3229F08B3219F080538A3025
:1001A000B8F4BE016F5F7F4FC6010E9482006A8370
:1001B0007B838C839D836A817B818C819D810E945E
:1001C0009A011835E9F094F41734A9F01335F1F0D9
:1001D00081E00F900F900F900F900F90DF91CF91D3
:1001E0001F91FF90EF90DF90CF900895193559F44B
:1001F000F7016283BCCF623058F7F7011082B7CFA6
:10020000F7016183B4CFF7016383B1CFF701648352
:10021000AECF5E9880E090E070E0861797070CF014
:1002200008952D9A5E9A2FEF33ED40E32150304030
:100230004040E1F700C000002D985E982FEF33EDAD
:1002400040E3215030404040E1F700C000000196FB
:10025000E4CFE0ECF0E08081826080831092C50002
:1002600080E18093C400E1ECF0E0808180618083D4
:1002700080818860808386E08093C2000895909199
:10028000C00095FFFCCF8093C6000895CF93DF9305
:10029000EC018991811103C0DF91CF9108950E94F3
:1002A0003F01F7CF8091C00087FFFCCF8091C6004F
:1002B00008951F93CF93DF93EC0110E00E94520149
:1002C000FE01E10FF11D1F5F80838A30B9F7C10F76
:1002D000D11D1882DF91CF911F910895559A569A9A
:1002E000579A0895CDB7DEB7C955D1090FB6F8941E
:1002F000DEBF0FBECDBF0E946E010E94290186E0C5
:1003000091E00E9446018E010F5A1F4F89E0F801CB
:1003100011928A95E9F7CE0101960E945901B80120
:10032000CE0101960E94A600F801618181E00E9441
:100330000901F1CF0E94D10188F09F5798F0B92FA1
:100340009927B751B0F0E1F0660F771F881F991F0A
:100350001AF0BA95C9F714C0B13091F00E94EB01C0
:10036000B1E008950C94EB01672F782F8827B85FD0
:1003700039F0B93FCCF3869577956795B395D9F762
:100380003EF490958095709561957F4F8F4F9F4F6C
:10039000089557FD9058440F551F59F05F3F71F075
:1003A0004795880F97FB991F61F09F3F79F08795DC
:1003B0000895121613061406551FF2CF4695F1DF65
:1003C00008C0161617061806991FF1CF86957105F5
:1003D000610508940895E894BB2766277727CB0129
:1003E00097F908950F931F93CF93DF93869F800112
:1003F000879F100D969F100D1124C8010E940E02B8
:10040000EC01009729F0A80170E060E00E943A0337
:10041000CE01DF91CF911F910F9108950F931F93FC
:10042000CF93DF939C01029710F422E030E0E0913B
:100430000A01F0910B0190E080E0B0E0A0E030977D
:1004400091F4009709F445C0821B930B8430910509
:10045000B8F58A819B816115710569F1FB01938370
:100460008283FE0111C040815181028113814217B4
:100470005307F0F04217530799F4109761F0129662
:100480000C93129713961C933296CF01DF91CF9164
:100490001F910F91089500930A0110930B01F4CF5F
:1004A000009719F04817590718F4CA01BD01EF0168
:1004B000DF01F801C4CF90930B0180930A01D1CFE3
:1004C000FE01E80FF91F21933193029799838883E6
:1004D000DCCF80910C0190910D01892B41F480912A
:1004E00002019091030190930D0180930C01809182
:1004F000000190910101009741F48DB79EB74091A2
:10050000040150910501841B950B40910C01509101
:100510000D014817590708F0B8CF841B950B8217B7
:10052000930708F4B2CFB9016E5F7F4F8617970724
:1005300008F4ABCF640F751F70930D0160930C012D
:10054000FA0121933193A1CFCF93DF939C010097C0
:10055000E9F0FC01329713821282C0910A01D09116
:100560000B01DE0190E080E02097A1F48081918171
:10057000280F391F80910C0190910D01821793076C
:1005800009F067C0F0930D01E0930C01DF91CF916A
:100590000895DA01AE17BF0708F041C012964D91D9
:1005A0005C911397CD014115510599F7DC01139624
:1005B000FC93EE9312974D915D91A40FB51FEA172E
:1005C000FB0781F4208131812E5F3F4F240F351FBF
:1005D000DC0111963C932E932281338113963C9338
:1005E0002E931297B0E0A0E08A819B810097B1F52D
:1005F000FE0181919191E80FF91F80910C0190917A
:100600000D018E179F0711F6109759F510920B01E7
:1006100010920A01D0930D01C0930C01B7CFB383A0
:10062000A28340815181240F351FA217B30771F4B3
:100630004E5F5F4F2D913C911197240F351F3183F1
:10064000208312962D913C9133832283009709F0E9
:10065000ADCFF0930B01E0930A0198CFDE01EC01DE
:10066000C3CF13961C921E921297D4CF662777277A
:100670000C944103DC0101C06D9341505040E0F700
:100680000895A8E0B0E0E7E4F3E00C9420068D8341
:100690009E836B016115710529F0ED81FE81DB01FF
:1006A000ED93FC93ED80FE8097012F5F3F4F3E83DB
:1006B0002D83D7010C91802F90E00E94EE045C0105
:1006C000892B81F70D32D9F5ED81FE8100819701EB
:1006D0002E5F3F4F3E832D8311E0ED80FE80F1E0E1
:1006E000EF1AF10843E050E060E770E0C7010E94B4
:1006F000F704892B79F5ED80FE8022E0E20EF11CF3
:1007000045E050E06BE670E0C7010E94F704892BDA
:1007100029F4ED80FE8037E0E30EF11CC114D10412
:1007200019F0D601ED92FC9220E030E040E85FE75E
:10073000112339F120E030E040E85FEF22C00B32B6
:1007400039F4AD81BE810C91F7013296FE83ED83C1
:1007500010E0C3CF43E050E068E670E0C7010E94BC
:10076000F704892BD1F4C114D10409F42EC1ED8111
:10077000FE813296D601ED93FC9320E030E040EC10
:100780005FE729833A834B835C8369817A818B811C
:100790009C812896EAE00C943C06F12CE12C19820D
:1007A0001A821B821C82F0EDF00FFA30B8F5E12FAF
:1007B000E260812F887012FF0CC0811103C03FEFEF
:1007C000E31AF30AAD81BE810D91BE83AD831E2F66
:1007D000EACF882319F041E0E41AF108A5E0B0E07F
:1007E00029813A814B815C810E940D06DC01CB019D
:1007F000880F991FAA1FBB1F9C01AD012F0F311D30
:10080000411D511D29833A834B835C832839394923
:1008100049495941B8F2E12FE660D4CFFE3F29F4AF
:1008200013FD26C0E12FE860CDCF0F7D053401F523
:10083000ED81FE8180818D3241F410619F012E5F38
:100840003F4F818142E050E009C02D813E818B32D3
:1008500009F456C02F5F3F4F41E050E0805395E0D0
:100860008A3008F456C0F901E41BF50BFE83ED83D2
:1008700011FF0AC0C114D10439F02D813E812150ED
:100880003109F6013183208369817A818B819C81D2
:100890000E941405462F572FBC014D835E836F8342
:1008A00078871370133039F4DC01CA01B0588D8396
:1008B0009E83AF83B8872D813E814F8158852983E0
:1008C0003A834B835C8320E030E0A9016D817E8117
:1008D0008F8198850E940F05882309F456CFF7FE73
:1008E0006FC0F194E194F10847E850E05E834D83D6
:1008F000CD80DE8038E1C31AD10800E210E037C0B5
:100900002E5F3F4FAD81BE8111968C919BCF2D8183
:100910003E81F0E8AF16FCE0BF0654F49A9DA001BA
:100920009B9D500D1124440F551F5A01A80EB11C58
:10093000D9018D91BE83AD8380538A3040F314FF7B
:1009400003C0B194A194B108EA0CFB1C91CF25918E
:1009500035914591549169817A818B819C810E9466
:10096000750569837A838B839C83E01AF10A8981F8
:100970009A81AB81BC81ED81FE81E016F1063CF7E6
:100980003497FE83ED8315950795EC15FD0579F7F2
:100990008A2F880F8B2F881F8F3F59F020E030E07F
:1009A000A90169817A818B819C810E940F05811147
:1009B000ECCE82E290E090930F0180930E01E5CEA1
:1009C0002FE930E03E832D8393CF80E090E0A0ECD0
:1009D000BFE789839A83AB83BC83D7CE91110C94F4
:1009E000E205803219F089508550C8F70895FB015F
:1009F000DC014150504088F08D9181341CF08B35E2
:100A00000CF4805E659161341CF06B350CF4605E13
:100A1000861B611171F3990B0895881BFCCF0E940E
:100A2000510508F481E00895E89409C097FB3EF46D
:100A300090958095709561957F4F8F4F9F4F99232B
:100A4000A9F0F92F96E9BB279395F69587957795A9
:100A50006795B795F111F8CFFAF4BB0F11F460FF69
:100A60001BC06F5F7F4F8F4F9F4F16C0882311F0C1
:100A700096E911C0772321F09EE8872F762F05C0D5
:100A8000662371F096E8862F70E060E02AF09A9570
:100A9000660F771F881FDAF7880F9695879597F965
:100AA0000895990F0008550FAA0BE0E8FEEF1616FF
:100AB0001706E807F907C0F012161306E407F50752
:100AC00098F0621B730B840B950B39F40A2661F0C6
:100AD000232B242B252B21F408950A2609F4A14069
:100AE000A6958FEF811D811D08950E9488050C94A5
:100AF000FC050E94EE0538F00E94F50520F09523D4
:100B000011F00C94E5050C94EB0511240C94EC0108
:100B10000E94C90170F3959FC1F3950F50E0551FD6
:100B2000629FF001729FBB27F00DB11D639FAA2742
:100B3000F00DB11DAA1F649F6627B00DA11D661F91
:100B4000829F2227B00DA11D621F739FB00DA11DB2
:100B5000621F839FA00D611D221F749F3327A00D6C
:100B6000611D231F849F600D211D822F762F6A2F08
:100B700011249F5750409AF0F1F088234AF0EE0F6D
:100B8000FF1FBB1F661F771F881F91505040A9F79A
:100B90009E3F510580F00C94E5050C94EC015F3FFD
:100BA000E4F3983ED4F3869577956795B795F795D6
:100BB000E7959F5FC1F7FE2B880F911D969587954E
:100BC00097F9089599278827089597F99F6780E8EE
:100BD00070E060E008959FEF80EC089500240A948F
:100BE0001616170618060906089500240A94121608
:100BF0001306140605060895092E0394000C11F43B
:100C0000882352F0BB0F40F4BF2B11F460FF04C0E7
:100C10006F5F7F4F8F4F9F4F08950E944F06A59F94
:100C2000900DB49F900DA49F800D911D11240895E7
:100C30002F923F924F925F926F927F928F929F92EC
:100C4000AF92BF92CF92DF92EF92FF920F931F93DA
:100C5000CF93DF93CDB7DEB7CA1BDB0B0FB6F8948B
:100C6000DEBF0FBECDBF09942A88398848885F84CB
:100C70006E847D848C849B84AA84B984C884DF803C
:100C8000EE80FD800C811B81AA81B981CE0FD11D20
:100C90000FB6F894DEBF0FBECDBFED010895A29F41
:100CA000B001B39FC001A39F700D811D1124911D40
:100CB000B29F700D811D1124911D0895F894FFCFEE
:0A0CC0000000100120004F4B0A0055
:00000001FF
